{
  "_format": "hh-sol-artifact-1",
  "contractName": "RandomNumberConsumer",
  "sourceName": "contracts/RandomNumberConsumer.sol",
  "abi": [
    {
      "inputs": [
        {
          "internalType": "address",
          "name": "_governance",
          "type": "address"
        },
        {
          "internalType": "address",
          "name": "_vrfCoordinator",
          "type": "address"
        }
      ],
      "stateMutability": "nonpayable",
      "type": "constructor"
    },
    {
      "anonymous": false,
      "inputs": [
        {
          "indexed": false,
          "internalType": "bytes32",
          "name": "requestId",
          "type": "bytes32"
        }
      ],
      "name": "RequestedRandomness",
      "type": "event"
    },
    {
      "inputs": [
        {
          "internalType": "uint256",
          "name": "userProvidedSeed",
          "type": "uint256"
        }
      ],
      "name": "getRandomNumber",
      "outputs": [
        {
          "internalType": "bytes32",
          "name": "requestId",
          "type": "bytes32"
        }
      ],
      "stateMutability": "nonpayable",
      "type": "function"
    },
    {
      "inputs": [],
      "name": "randomResult",
      "outputs": [
        {
          "internalType": "uint256",
          "name": "",
          "type": "uint256"
        }
      ],
      "stateMutability": "view",
      "type": "function"
    },
    {
      "inputs": [
        {
          "internalType": "bytes32",
          "name": "requestId",
          "type": "bytes32"
        },
        {
          "internalType": "uint256",
          "name": "randomness",
          "type": "uint256"
        }
      ],
      "name": "rawFulfillRandomness",
      "outputs": [],
      "stateMutability": "nonpayable",
      "type": "function"
    },
    {
      "inputs": [],
      "name": "vrfCoordinator",
      "outputs": [
        {
          "internalType": "address",
          "name": "",
          "type": "address"
        }
      ],
      "stateMutability": "view",
      "type": "function"
    }
  ],
  "bytecode": "0x60c060405234801561001057600080fd5b50604051610c1e380380610c1e8339818101604052604081101561003357600080fd5b8101908080519060200190929190805190602001909291905050508073a36085f69e2889c224210f603d836748e7dc00888173ffffffffffffffffffffffffffffffffffffffff1660a08173ffffffffffffffffffffffffffffffffffffffff1660601b815250508073ffffffffffffffffffffffffffffffffffffffff1660808173ffffffffffffffffffffffffffffffffffffffff1660601b8152505050507f6c3699283bda56ad74f6b855546325b68d482e983852a7a82979cc4807b641f460001b60018190555067016345785d8a000060028190555080600460006101000a81548173ffffffffffffffffffffffffffffffffffffffff021916908373ffffffffffffffffffffffffffffffffffffffff16021790555081600560006101000a81548173ffffffffffffffffffffffffffffffffffffffff021916908373ffffffffffffffffffffffffffffffffffffffff160217905550600560009054906101000a900473ffffffffffffffffffffffffffffffffffffffff1673ffffffffffffffffffffffffffffffffffffffff16639ee782a0306040518263ffffffff1660e01b8152600401808273ffffffffffffffffffffffffffffffffffffffff1673ffffffffffffffffffffffffffffffffffffffff168152602001915050600060405180830381600087803b15801561023057600080fd5b505af1158015610244573d6000803e3d6000fd5b50505050505060805160601c60a05160601c6109a161027d6000398061013b52806104e152508061023552806104a552506109a16000f3fe608060405234801561001057600080fd5b506004361061004c5760003560e01c806342619f661461005157806394985ddd1461006f578063a3e56fa8146100a7578063b37217a4146100f1575b600080fd5b610059610133565b6040518082815260200191505060405180910390f35b6100a56004803603604081101561008557600080fd5b810190808035906020019092919080359060200190929190505050610139565b005b6100af610208565b604051808273ffffffffffffffffffffffffffffffffffffffff1673ffffffffffffffffffffffffffffffffffffffff16815260200191505060405180910390f35b61011d6004803603602081101561010757600080fd5b810190808035906020019092919050505061022e565b6040518082815260200191505060405180910390f35b60035481565b7f000000000000000000000000000000000000000000000000000000000000000073ffffffffffffffffffffffffffffffffffffffff163373ffffffffffffffffffffffffffffffffffffffff16146101fa576040517f08c379a000000000000000000000000000000000000000000000000000000000815260040180806020018281038252601f8152602001807f4f6e6c7920565246436f6f7264696e61746f722063616e2066756c66696c6c0081525060200191505060405180910390fd5b61020482826103af565b5050565b600460009054906101000a900473ffffffffffffffffffffffffffffffffffffffff1681565b60006002547f000000000000000000000000000000000000000000000000000000000000000073ffffffffffffffffffffffffffffffffffffffff166370a08231306040518263ffffffff1660e01b8152600401808273ffffffffffffffffffffffffffffffffffffffff1673ffffffffffffffffffffffffffffffffffffffff16815260200191505060206040518083038186803b1580156102d057600080fd5b505afa1580156102e4573d6000803e3d6000fd5b505050506040513d60208110156102fa57600080fd5b81019080805190602001909291905050501015610362576040517f08c379a000000000000000000000000000000000000000000000000000000000815260040180806020018281038252602b815260200180610941602b913960400191505060405180910390fd5b610371600154600254846104a1565b90507fe5f5b44d72d4143c278eb745c4acc0695c4a5bc616be5beecf46abe29661780e816040518082815260200191505060405180910390a1919050565b600460009054906101000a900473ffffffffffffffffffffffffffffffffffffffff1673ffffffffffffffffffffffffffffffffffffffff163373ffffffffffffffffffffffffffffffffffffffff1614610455576040517f08c379a00000000000000000000000000000000000000000000000000000000081526004018080602001828103825260298152602001806109186029913960400191505060405180910390fd5b8060038190555061049d6040518060400160405280600e81526020017f4655434b494e47204849542025730000000000000000000000000000000000008152506003546106ac565b5050565b60007f000000000000000000000000000000000000000000000000000000000000000073ffffffffffffffffffffffffffffffffffffffff16634000aea07f000000000000000000000000000000000000000000000000000000000000000085878660405160200180838152602001828152602001925050506040516020818303038152906040526040518463ffffffff1660e01b8152600401808473ffffffffffffffffffffffffffffffffffffffff1673ffffffffffffffffffffffffffffffffffffffff16815260200183815260200180602001828103825283818151815260200191508051906020019080838360005b838110156105b0578082015181840152602081019050610595565b50505050905090810190601f1680156105dd5780820380516001836020036101000a031916815260200191505b50945050505050602060405180830381600087803b1580156105fe57600080fd5b505af1158015610612573d6000803e3d6000fd5b505050506040513d602081101561062857600080fd5b810190808051906020019092919050505050600061065a8584306000808a8152602001908152602001600020546107b3565b905061068260016000808881526020019081526020016000205461082d90919063ffffffff16565b600080878152602001908152602001600020819055506106a285826108b5565b9150509392505050565b6107af82826040516024018080602001838152602001828103825284818151815260200191508051906020019080838360005b838110156106fa5780820151818401526020810190506106df565b50505050905090810190601f1680156107275780820380516001836020036101000a031916815260200191505b5093505050506040516020818303038152906040527f9710a9d0000000000000000000000000000000000000000000000000000000007bffffffffffffffffffffffffffffffffffffffffffffffffffffffff19166020820180517bffffffffffffffffffffffffffffffffffffffffffffffffffffffff83818316178352505050506108ee565b5050565b600084848484604051602001808581526020018481526020018373ffffffffffffffffffffffffffffffffffffffff1673ffffffffffffffffffffffffffffffffffffffff1681526020018281526020019450505050506040516020818303038152906040528051906020012060001c9050949350505050565b6000808284019050838110156108ab576040517f08c379a000000000000000000000000000000000000000000000000000000000815260040180806020018281038252601b8152602001807f536166654d6174683a206164646974696f6e206f766572666c6f77000000000081525060200191505060405180910390fd5b8091505092915050565b60008282604051602001808381526020018281526020019250505060405160208183030381529060405280519060200120905092915050565b60008151905060006a636f6e736f6c652e6c6f679050602083016000808483855afa505050505056fe46756c66696c6c6d656e74206f6e6c79207065726d697474656420627920436f6f7264696e61746f724e6f7420656e6f756768204c494e4b202d2066696c6c20636f6e7472616374207769746820666175636574a264697066735822122039ced52e2773a16bcc45245d0f6f7a6370835f95d7c0e30ffc9c00796d7c1db364736f6c63430006060033",
  "linkReferences": {},
  "deployedLinkReferences": {}
}