{
  "_format": "hh-sol-artifact-1",
  "contractName": "Lottery",
  "sourceName": "contracts/Lottery.sol",
  "abi": [
    {
      "inputs": [
        {
          "internalType": "uint256",
          "name": "_price",
          "type": "uint256"
        }
      ],
      "stateMutability": "nonpayable",
      "type": "constructor"
    },
    {
      "anonymous": false,
      "inputs": [
        {
          "indexed": true,
          "internalType": "bytes32",
          "name": "id",
          "type": "bytes32"
        }
      ],
      "name": "ChainlinkCancelled",
      "type": "event"
    },
    {
      "anonymous": false,
      "inputs": [
        {
          "indexed": true,
          "internalType": "bytes32",
          "name": "id",
          "type": "bytes32"
        }
      ],
      "name": "ChainlinkFulfilled",
      "type": "event"
    },
    {
      "anonymous": false,
      "inputs": [
        {
          "indexed": true,
          "internalType": "bytes32",
          "name": "id",
          "type": "bytes32"
        }
      ],
      "name": "ChainlinkRequested",
      "type": "event"
    },
    {
      "inputs": [],
      "name": "enter",
      "outputs": [],
      "stateMutability": "payable",
      "type": "function"
    },
    {
      "inputs": [
        {
          "internalType": "bytes32",
          "name": "_requestId",
          "type": "bytes32"
        }
      ],
      "name": "fulfill_alarm",
      "outputs": [],
      "stateMutability": "nonpayable",
      "type": "function"
    },
    {
      "inputs": [
        {
          "internalType": "uint256",
          "name": "randomness",
          "type": "uint256"
        }
      ],
      "name": "fulfill_random",
      "outputs": [],
      "stateMutability": "nonpayable",
      "type": "function"
    },
    {
      "inputs": [],
      "name": "lotteryId",
      "outputs": [
        {
          "internalType": "uint256",
          "name": "",
          "type": "uint256"
        }
      ],
      "stateMutability": "view",
      "type": "function"
    },
    {
      "inputs": [],
      "name": "lottery_state",
      "outputs": [
        {
          "internalType": "enum Lottery.LOTTERY_STATE",
          "name": "",
          "type": "uint8"
        }
      ],
      "stateMutability": "view",
      "type": "function"
    },
    {
      "inputs": [
        {
          "internalType": "uint256",
          "name": "",
          "type": "uint256"
        }
      ],
      "name": "players",
      "outputs": [
        {
          "internalType": "address payable",
          "name": "",
          "type": "address"
        }
      ],
      "stateMutability": "view",
      "type": "function"
    },
    {
      "inputs": [],
      "name": "price",
      "outputs": [
        {
          "internalType": "uint256",
          "name": "",
          "type": "uint256"
        }
      ],
      "stateMutability": "view",
      "type": "function"
    },
    {
      "inputs": [
        {
          "internalType": "uint256",
          "name": "duration",
          "type": "uint256"
        }
      ],
      "name": "start_new_lottery",
      "outputs": [],
      "stateMutability": "nonpayable",
      "type": "function"
    }
  ],
  "bytecode": "0x608060405260016004553480156200001657600080fd5b506040516200191538038062001915833981810160405260208110156200003c57600080fd5b81019080805190602001909291905050506200005d6200012360201b60201c565b73aa1dc356dc4b18f30c347798fd5379f3d77abc5b600860006101000a81548173ffffffffffffffffffffffffffffffffffffffff021916908373ffffffffffffffffffffffffffffffffffffffff16021790555067016345785d8a0000600b819055507f3938323130356436393035303463356439636533373464303430633038363534600c8190555080600a8190555060016009819055506001600660006101000a81548160ff021916908360028111156200011757fe5b02179055505062000211565b620001cb73c89bd4e1632d3a43cb03aaad5262cbe4038bc57173ffffffffffffffffffffffffffffffffffffffff166338cc48316040518163ffffffff1660e01b815260040160206040518083038186803b1580156200018257600080fd5b505afa15801562000197573d6000803e3d6000fd5b505050506040513d6020811015620001ae57600080fd5b8101908080519060200190929190505050620001cd60201b60201c565b565b80600260006101000a81548173ffffffffffffffffffffffffffffffffffffffff021916908373ffffffffffffffffffffffffffffffffffffffff16021790555050565b6116f480620002216000396000f3fe60806040526004361061007b5760003560e01c8063d0b82d771161004e578063d0b82d771461015a578063e580f47b14610195578063e97dcb62146101c0578063f71d96cb146101ca5761007b565b806322bb34d81461008057806381447999146100bb578063a035b1fe146100f4578063c251ebf21461011f575b600080fd5b34801561008c57600080fd5b506100b9600480360360208110156100a357600080fd5b8101908080359060200190929190505050610245565b005b3480156100c757600080fd5b506100d0610451565b604051808260028111156100e057fe5b60ff16815260200191505060405180910390f35b34801561010057600080fd5b50610109610464565b6040518082815260200191505060405180910390f35b34801561012b57600080fd5b506101586004803603602081101561014257600080fd5b810190808035906020019092919050505061046a565b005b34801561016657600080fd5b506101936004803603602081101561017d57600080fd5b8101908080359060200190929190505050610691565b005b3480156101a157600080fd5b506101aa6107ee565b6040518082815260200191505060405180910390f35b6101c86107f4565b005b3480156101d657600080fd5b50610203600480360360208110156101ed57600080fd5b8101908080359060200190929190505050610893565b604051808273ffffffffffffffffffffffffffffffffffffffff1673ffffffffffffffffffffffffffffffffffffffff16815260200191505060405180910390f35b806005600082815260200190815260200160002060009054906101000a900473ffffffffffffffffffffffffffffffffffffffff1673ffffffffffffffffffffffffffffffffffffffff163373ffffffffffffffffffffffffffffffffffffffff16146102fd576040517f08c379a00000000000000000000000000000000000000000000000000000000081526004018080602001828103825260288152602001806116976028913960400191505060405180910390fd5b6005600082815260200190815260200160002060006101000a81549073ffffffffffffffffffffffffffffffffffffffff0219169055807f7cc135e0cebb02c3480ae5d74d377283180a2601f8f644edf7987b009316c63a60405160405180910390a26000600281111561036d57fe5b600660009054906101000a900460ff16600281111561038857fe5b146103fb576040517f08c379a00000000000000000000000000000000000000000000000000000000081526004018080602001828103825260208152602001807f546865206c6f7474657279206861736e2774206576656e20737461727465642181525060200191505060405180910390fd5b6001600954016009819055506104456040518060400160405280600f81526020017f414c41524d5f46554c46494c4c454400000000000000000000000000000000008152506108cf565b61044d6109cd565b5050565b600660009054906101000a900460ff1681565b600a5481565b60028081111561047657fe5b600660009054906101000a900460ff16600281111561049157fe5b14610504576040517f08c379a000000000000000000000000000000000000000000000000000000000815260040180806020018281038252601d8152602001807f596f75206172656e27742061742074686174207374616765207965742100000081525060200191505060405180910390fd5b6000811161057a576040517f08c379a00000000000000000000000000000000000000000000000000000000081526004018080602001828103825260108152602001807f72616e646f6d2d6e6f742d666f756e640000000000000000000000000000000081525060200191505060405180910390fd5b6000600780549050828161058a57fe5b0690506007818154811061059a57fe5b9060005260206000200160009054906101000a900473ffffffffffffffffffffffffffffffffffffffff1673ffffffffffffffffffffffffffffffffffffffff166108fc479081150290604051600060405180830381858888f1935050505015801561060a573d6000803e3d6000fd5b50600067ffffffffffffffff8111801561062357600080fd5b506040519080825280602002602001820160405280156106525781602001602082028036833780820191505090505b506007908051906020019061066892919061151f565b506001600660006101000a81548160ff0219169083600281111561068857fe5b02179055505050565b6001600281111561069e57fe5b600660009054906101000a900460ff1660028111156106b957fe5b1461072c576040517f08c379a000000000000000000000000000000000000000000000000000000000815260040180806020018281038252601d8152602001807f63616e27742073746172742061206e6577206c6f74746572792079657400000081525060200191505060405180910390fd5b6000600660006101000a81548160ff0219169083600281111561074b57fe5b02179055506107586115a9565b61076c600c54306322bb34d860e01b610b84565b90506107ba6040518060400160405280600581526020017f756e74696c00000000000000000000000000000000000000000000000000000081525083420183610bb59092919063ffffffff16565b6107e9600860009054906101000a900473ffffffffffffffffffffffffffffffffffffffff1682600b54610be8565b505050565b60095481565b600a5434146107ff57fe5b6000600281111561080c57fe5b600660009054906101000a900460ff16600281111561082757fe5b1461082e57fe5b6007339080600181540180825580915050600190039060005260206000200160009091909190916101000a81548173ffffffffffffffffffffffffffffffffffffffff021916908373ffffffffffffffffffffffffffffffffffffffff160217905550565b600781815481106108a057fe5b906000526020600020016000915054906101000a900473ffffffffffffffffffffffffffffffffffffffff1681565b6109ca816040516024018080602001828103825283818151815260200191508051906020019080838360005b838110156109165780820151818401526020810190506108fb565b50505050905090810190601f1680156109435780820380516001836020036101000a031916815260200191505b50925050506040516020818303038152906040527f41304fac000000000000000000000000000000000000000000000000000000007bffffffffffffffffffffffffffffffffffffffffffffffffffffffff19166020820180517bffffffffffffffffffffffffffffffffffffffffffffffffffffffff8381831617835250505050610ea0565b50565b6002808111156109d957fe5b600660009054906101000a900460ff1660028111156109f457fe5b14610a67576040517f08c379a000000000000000000000000000000000000000000000000000000000815260040180806020018281038252601c8152602001807f596f75206172656e27742061742074686174207374616765207965740000000081525060200191505060405180910390fd5b600d60009054906101000a900473ffffffffffffffffffffffffffffffffffffffff1673ffffffffffffffffffffffffffffffffffffffff1663360131896040518163ffffffff1660e01b8152600401602060405180830381600087803b158015610ad157600080fd5b505af1158015610ae5573d6000803e3d6000fd5b505050506040513d6020811015610afb57600080fd5b810190808051906020019092919050505073ffffffffffffffffffffffffffffffffffffffff1663655b08eb6009546009546040518363ffffffff1660e01b81526004018083815260200182815260200192505050600060405180830381600087803b158015610b6a57600080fd5b505af1158015610b7e573d6000803e3d6000fd5b50505050565b610b8c6115a9565b610b946115a9565b610bab85858584610ec9909392919063ffffffff16565b9150509392505050565b610bcc828460800151610f7990919063ffffffff16565b610be3818460800151610f9e90919063ffffffff16565b505050565b600030600454604051602001808373ffffffffffffffffffffffffffffffffffffffff1673ffffffffffffffffffffffffffffffffffffffff1660601b815260140182815260200192505050604051602081830303815290604052805190602001209050600454836060018181525050836005600083815260200190815260200160002060006101000a81548173ffffffffffffffffffffffffffffffffffffffff021916908373ffffffffffffffffffffffffffffffffffffffff160217905550807fb5e6e01e79f91267dc17b4e6314d5d4d03593d2ceee0fbb452b750bd70ea5af960405160405180910390a2600260009054906101000a900473ffffffffffffffffffffffffffffffffffffffff1673ffffffffffffffffffffffffffffffffffffffff16634000aea08584610d2087610fae565b6040518463ffffffff1660e01b8152600401808473ffffffffffffffffffffffffffffffffffffffff1673ffffffffffffffffffffffffffffffffffffffff16815260200183815260200180602001828103825283818151815260200191508051906020019080838360005b83811015610da7578082015181840152602081019050610d8c565b50505050905090810190601f168015610dd45780820380516001836020036101000a031916815260200191505b50945050505050602060405180830381600087803b158015610df557600080fd5b505af1158015610e09573d6000803e3d6000fd5b505050506040513d6020811015610e1f57600080fd5b8101908080519060200190929190505050610e85576040517f08c379a00000000000000000000000000000000000000000000000000000000081526004018080602001828103825260238152602001806116746023913960400191505060405180910390fd5b60016004600082825401925050819055508090509392505050565b60008151905060006a636f6e736f6c652e6c6f679050602083016000808483855afa5050505050565b610ed16115a9565b610ee1856080015161010061117a565b508385600001818152505082856020019073ffffffffffffffffffffffffffffffffffffffff16908173ffffffffffffffffffffffffffffffffffffffff16815250508185604001907bffffffffffffffffffffffffffffffffffffffffffffffffffffffff191690817bffffffffffffffffffffffffffffffffffffffffffffffffffffffff191681525050849050949350505050565b610f8682600383516111ce565b610f99818361131390919063ffffffff16565b505050565b610faa826000836111ce565b5050565b6060634042994660e01b60008084600001518560200151866040015187606001516001896080015160000151604051602401808973ffffffffffffffffffffffffffffffffffffffff1673ffffffffffffffffffffffffffffffffffffffff1681526020018881526020018781526020018673ffffffffffffffffffffffffffffffffffffffff1673ffffffffffffffffffffffffffffffffffffffff168152602001857bffffffffffffffffffffffffffffffffffffffffffffffffffffffff19167bffffffffffffffffffffffffffffffffffffffffffffffffffffffff1916815260200184815260200183815260200180602001828103825283818151815260200191508051906020019080838360005b838110156110dd5780820151818401526020810190506110c2565b50505050905090810190601f16801561110a5780820380516001836020036101000a031916815260200191505b509950505050505050505050604051602081830303815290604052907bffffffffffffffffffffffffffffffffffffffffffffffffffffffff19166020820180517bffffffffffffffffffffffffffffffffffffffffffffffffffffffff83818316178352505050509050919050565b611182611616565b60006020838161118e57fe5b06146111a7576020828161119e57fe5b06602003820191505b81836020018181525050604051808452600081528281016020016040525082905092915050565b601781116111fb576111f58160058460ff16901b60ff16178461133590919063ffffffff16565b5061130e565b60ff811161123d57611220601860058460ff16901b178461133590919063ffffffff16565b50611237816001856113559092919063ffffffff16565b5061130d565b61ffff811161128057611263601960058460ff16901b178461133590919063ffffffff16565b5061127a816002856113559092919063ffffffff16565b5061130c565b63ffffffff81116112c5576112a8601a60058460ff16901b178461133590919063ffffffff16565b506112bf816004856113559092919063ffffffff16565b5061130b565b67ffffffffffffffff811161130a576112f1601b60058460ff16901b178461133590919063ffffffff16565b50611308816008856113559092919063ffffffff16565b505b5b5b5b5b505050565b61131b611616565b61132d83846000015151848551611377565b905092915050565b61133d611616565b61134d8384600001515184611430565b905092915050565b61135d611616565b61136e84856000015151858561147e565b90509392505050565b61137f611616565b825182111561138d57600080fd5b846020015182850111156113b8576113b78560026113b188602001518887016114df565b026114fb565b5b6000808651805187602083010193508088870111156113d75787860182525b60208701925050505b6020841061140357805182526020820191506020810190506020840393506113e0565b60006001856020036101000a03905080198251168184511681811785525050879350505050949350505050565b611438611616565b83602001518310611455576114548460028660200151026114fb565b5b8351805160208583010184815381861415611471576001820183525b5050508390509392505050565b611486611616565b846020015184830111156114a4576114a3856002868501026114fb565b5b60006001836101000a03905085518386820101858319825116178152815185880111156114d15784870182525b505085915050949350505050565b6000818311156114f1578290506114f5565b8190505b92915050565b60608260000151905061150e838361117a565b506115198382611313565b50505050565b828054828255906000526020600020908101928215611598579160200282015b828111156115975782518260006101000a81548173ffffffffffffffffffffffffffffffffffffffff021916908373ffffffffffffffffffffffffffffffffffffffff1602179055509160200191906001019061153f565b5b5090506115a59190611630565b5090565b6040518060a0016040528060008019168152602001600073ffffffffffffffffffffffffffffffffffffffff16815260200160007bffffffffffffffffffffffffffffffffffffffffffffffffffffffff1916815260200160008152602001611610611616565b81525090565b604051806040016040528060608152602001600081525090565b61167091905b8082111561166c57600081816101000a81549073ffffffffffffffffffffffffffffffffffffffff021916905550600101611636565b5090565b9056fe756e61626c6520746f207472616e73666572416e6443616c6c20746f206f7261636c65536f75726365206d75737420626520746865206f7261636c65206f66207468652072657175657374a2646970667358221220202ddd1ca525af05a71e9aab0aab8ac6a1ac3e3286b4a74613ff059b24608cd164736f6c63430006060033",
  "linkReferences": {},
  "deployedLinkReferences": {}
}