{
  "_format": "hh-sol-artifact-1",
  "contractName": "Lottery",
  "sourceName": "contracts/Lottery.sol",
  "abi": [
    {
      "inputs": [
        {
          "internalType": "uint256",
          "name": "_price",
          "type": "uint256"
        }
      ],
      "stateMutability": "nonpayable",
      "type": "constructor"
    },
    {
      "anonymous": false,
      "inputs": [
        {
          "indexed": true,
          "internalType": "bytes32",
          "name": "id",
          "type": "bytes32"
        }
      ],
      "name": "ChainlinkCancelled",
      "type": "event"
    },
    {
      "anonymous": false,
      "inputs": [
        {
          "indexed": true,
          "internalType": "bytes32",
          "name": "id",
          "type": "bytes32"
        }
      ],
      "name": "ChainlinkFulfilled",
      "type": "event"
    },
    {
      "anonymous": false,
      "inputs": [
        {
          "indexed": true,
          "internalType": "bytes32",
          "name": "id",
          "type": "bytes32"
        }
      ],
      "name": "ChainlinkRequested",
      "type": "event"
    },
    {
      "inputs": [],
      "name": "enter",
      "outputs": [],
      "stateMutability": "payable",
      "type": "function"
    },
    {
      "inputs": [],
      "name": "fulfill_alarm",
      "outputs": [],
      "stateMutability": "nonpayable",
      "type": "function"
    },
    {
      "inputs": [
        {
          "internalType": "uint256",
          "name": "randomness",
          "type": "uint256"
        }
      ],
      "name": "fulfill_random",
      "outputs": [],
      "stateMutability": "nonpayable",
      "type": "function"
    },
    {
      "inputs": [],
      "name": "lotteryId",
      "outputs": [
        {
          "internalType": "uint256",
          "name": "",
          "type": "uint256"
        }
      ],
      "stateMutability": "view",
      "type": "function"
    },
    {
      "inputs": [
        {
          "internalType": "uint256",
          "name": "",
          "type": "uint256"
        }
      ],
      "name": "lottery_duration",
      "outputs": [
        {
          "internalType": "uint256",
          "name": "",
          "type": "uint256"
        }
      ],
      "stateMutability": "view",
      "type": "function"
    },
    {
      "inputs": [],
      "name": "lottery_state",
      "outputs": [
        {
          "internalType": "enum Lottery.LOTTERY_STATE",
          "name": "",
          "type": "uint8"
        }
      ],
      "stateMutability": "view",
      "type": "function"
    },
    {
      "inputs": [
        {
          "internalType": "uint256",
          "name": "",
          "type": "uint256"
        }
      ],
      "name": "players",
      "outputs": [
        {
          "internalType": "address payable",
          "name": "",
          "type": "address"
        }
      ],
      "stateMutability": "view",
      "type": "function"
    },
    {
      "inputs": [],
      "name": "price",
      "outputs": [
        {
          "internalType": "uint256",
          "name": "",
          "type": "uint256"
        }
      ],
      "stateMutability": "view",
      "type": "function"
    },
    {
      "inputs": [
        {
          "internalType": "uint256",
          "name": "duration",
          "type": "uint256"
        }
      ],
      "name": "start_new_lottery",
      "outputs": [],
      "stateMutability": "nonpayable",
      "type": "function"
    }
  ],
  "bytecode": "0x6080604052600160045534801561001557600080fd5b50604051610adc380380610adc8339818101604052602081101561003857600080fd5b810190808051906020019092919050505061005761011b60201b60201c565b73aa1dc356dc4b18f30c347798fd5379f3d77abc5b600860006101000a81548173ffffffffffffffffffffffffffffffffffffffff021916908373ffffffffffffffffffffffffffffffffffffffff16021790555067016345785d8a0000600b819055507f3938323130356436393035303463356439636533373464303430633038363534600c8190555080600a8190555060016009819055506001600660006101000a81548160ff0219169083600281111561011057fe5b021790555050610204565b6101be73c89bd4e1632d3a43cb03aaad5262cbe4038bc57173ffffffffffffffffffffffffffffffffffffffff166338cc48316040518163ffffffff1660e01b815260040160206040518083038186803b15801561017857600080fd5b505afa15801561018c573d6000803e3d6000fd5b505050506040513d60208110156101a257600080fd5b81019080805190602001909291905050506101c060201b60201c565b565b80600260006101000a81548173ffffffffffffffffffffffffffffffffffffffff021916908373ffffffffffffffffffffffffffffffffffffffff16021790555050565b6108c9806102136000396000f3fe6080604052600436106100865760003560e01c8063c251ebf211610059578063c251ebf214610155578063d0b82d7714610190578063e580f47b146101cb578063e97dcb62146101f6578063f71d96cb1461020057610086565b80631e9a5a111461008b5780635c7823ce146100a257806381447999146100f1578063a035b1fe1461012a575b600080fd5b34801561009757600080fd5b506100a061027b565b005b3480156100ae57600080fd5b506100db600480360360208110156100c557600080fd5b81019080803590602001909291905050506103af565b6040518082815260200191505060405180910390f35b3480156100fd57600080fd5b506101066103c7565b6040518082600281111561011657fe5b60ff16815260200191505060405180910390f35b34801561013657600080fd5b5061013f6103da565b6040518082815260200191505060405180910390f35b34801561016157600080fd5b5061018e6004803603602081101561017857600080fd5b81019080803590602001909291905050506103e0565b005b34801561019c57600080fd5b506101c9600480360360208110156101b357600080fd5b8101908080359060200190929190505050610607565b005b3480156101d757600080fd5b506101e06106e5565b6040518082815260200191505060405180910390f35b6101fe6106eb565b005b34801561020c57600080fd5b506102396004803603602081101561022357600080fd5b810190808035906020019092919050505061078a565b604051808273ffffffffffffffffffffffffffffffffffffffff1673ffffffffffffffffffffffffffffffffffffffff16815260200191505060405180910390f35b6000600281111561028857fe5b600660009054906101000a900460ff1660028111156102a357fe5b14610316576040517f08c379a00000000000000000000000000000000000000000000000000000000081526004018080602001828103825260208152602001807f546865206c6f7474657279206861736e2774206576656e20737461727465642181525060200191505060405180910390fd5b42600e600060095481526020019081526020016000205411156103a1576040517f08c379a000000000000000000000000000000000000000000000000000000000815260040180806020018281038252601d8152602001807f546865204c6f747465727920686173206e6f7420656e6465642079657400000081525060200191505060405180910390fd5b600160095401600981905550565b600e6020528060005260406000206000915090505481565b600660009054906101000a900460ff1681565b600a5481565b6002808111156103ec57fe5b600660009054906101000a900460ff16600281111561040757fe5b1461047a576040517f08c379a000000000000000000000000000000000000000000000000000000000815260040180806020018281038252601d8152602001807f596f75206172656e27742061742074686174207374616765207965742100000081525060200191505060405180910390fd5b600081116104f0576040517f08c379a00000000000000000000000000000000000000000000000000000000081526004018080602001828103825260108152602001807f72616e646f6d2d6e6f742d666f756e640000000000000000000000000000000081525060200191505060405180910390fd5b6000600780549050828161050057fe5b0690506007818154811061051057fe5b9060005260206000200160009054906101000a900473ffffffffffffffffffffffffffffffffffffffff1673ffffffffffffffffffffffffffffffffffffffff166108fc479081150290604051600060405180830381858888f19350505050158015610580573d6000803e3d6000fd5b50600067ffffffffffffffff8111801561059957600080fd5b506040519080825280602002602001820160405280156105c85781602001602082028036833780820191505090505b50600790805190602001906105de9291906107c6565b506001600660006101000a81548160ff021916908360028111156105fe57fe5b02179055505050565b6001600281111561061457fe5b600660009054906101000a900460ff16600281111561062f57fe5b146106a2576040517f08c379a000000000000000000000000000000000000000000000000000000000815260040180806020018281038252601d8152602001807f63616e27742073746172742061206e6577206c6f74746572792079657400000081525060200191505060405180910390fd5b6000600660006101000a81548160ff021916908360028111156106c157fe5b0217905550804201600e600060095481526020019081526020016000208190555050565b60095481565b600a5434146106f657fe5b6000600281111561070357fe5b600660009054906101000a900460ff16600281111561071e57fe5b1461072557fe5b6007339080600181540180825580915050600190039060005260206000200160009091909190916101000a81548173ffffffffffffffffffffffffffffffffffffffff021916908373ffffffffffffffffffffffffffffffffffffffff160217905550565b6007818154811061079757fe5b906000526020600020016000915054906101000a900473ffffffffffffffffffffffffffffffffffffffff1681565b82805482825590600052602060002090810192821561083f579160200282015b8281111561083e5782518260006101000a81548173ffffffffffffffffffffffffffffffffffffffff021916908373ffffffffffffffffffffffffffffffffffffffff160217905550916020019190600101906107e6565b5b50905061084c9190610850565b5090565b61089091905b8082111561088c57600081816101000a81549073ffffffffffffffffffffffffffffffffffffffff021916905550600101610856565b5090565b9056fea264697066735822122090d58d5af2f71f83b1ded154a63ff8502c291eecbfeb4dade8eb2c858fb5d97864736f6c63430006060033",
  "linkReferences": {},
  "deployedLinkReferences": {}
}