{
  "_format": "hh-sol-artifact-1",
  "contractName": "Lottery",
  "sourceName": "contracts/Lottery.sol",
  "abi": [
    {
      "inputs": [
        {
          "internalType": "uint256",
          "name": "_price",
          "type": "uint256"
        }
      ],
      "stateMutability": "nonpayable",
      "type": "constructor"
    },
    {
      "anonymous": false,
      "inputs": [
        {
          "indexed": true,
          "internalType": "bytes32",
          "name": "id",
          "type": "bytes32"
        }
      ],
      "name": "ChainlinkCancelled",
      "type": "event"
    },
    {
      "anonymous": false,
      "inputs": [
        {
          "indexed": true,
          "internalType": "bytes32",
          "name": "id",
          "type": "bytes32"
        }
      ],
      "name": "ChainlinkFulfilled",
      "type": "event"
    },
    {
      "anonymous": false,
      "inputs": [
        {
          "indexed": true,
          "internalType": "bytes32",
          "name": "id",
          "type": "bytes32"
        }
      ],
      "name": "ChainlinkRequested",
      "type": "event"
    },
    {
      "inputs": [],
      "name": "enter",
      "outputs": [],
      "stateMutability": "payable",
      "type": "function"
    },
    {
      "inputs": [
        {
          "internalType": "bytes32",
          "name": "_requestId",
          "type": "bytes32"
        }
      ],
      "name": "fulfill_alarm",
      "outputs": [],
      "stateMutability": "nonpayable",
      "type": "function"
    },
    {
      "inputs": [
        {
          "internalType": "uint256",
          "name": "randomness",
          "type": "uint256"
        }
      ],
      "name": "fulfill_random",
      "outputs": [],
      "stateMutability": "nonpayable",
      "type": "function"
    },
    {
      "inputs": [],
      "name": "lotteryId",
      "outputs": [
        {
          "internalType": "uint256",
          "name": "",
          "type": "uint256"
        }
      ],
      "stateMutability": "view",
      "type": "function"
    },
    {
      "inputs": [],
      "name": "lottery_state",
      "outputs": [
        {
          "internalType": "enum Lottery.LOTTERY_STATE",
          "name": "",
          "type": "uint8"
        }
      ],
      "stateMutability": "view",
      "type": "function"
    },
    {
      "inputs": [
        {
          "internalType": "uint256",
          "name": "",
          "type": "uint256"
        }
      ],
      "name": "players",
      "outputs": [
        {
          "internalType": "address payable",
          "name": "",
          "type": "address"
        }
      ],
      "stateMutability": "view",
      "type": "function"
    },
    {
      "inputs": [],
      "name": "price",
      "outputs": [
        {
          "internalType": "uint256",
          "name": "",
          "type": "uint256"
        }
      ],
      "stateMutability": "view",
      "type": "function"
    },
    {
      "inputs": [
        {
          "internalType": "uint256",
          "name": "duration",
          "type": "uint256"
        }
      ],
      "name": "start_new_lottery",
      "outputs": [],
      "stateMutability": "nonpayable",
      "type": "function"
    }
  ],
  "bytecode": "0x6080604052600160045534801561001557600080fd5b50604051620017a5380380620017a58339818101604052602081101561003a57600080fd5b810190808051906020019092919050505061005961011d60201b60201c565b73aa1dc356dc4b18f30c347798fd5379f3d77abc5b600860006101000a81548173ffffffffffffffffffffffffffffffffffffffff021916908373ffffffffffffffffffffffffffffffffffffffff16021790555067016345785d8a0000600b819055507f3938323130356436393035303463356439636533373464303430633038363534600c8190555080600a8190555060016009819055506001600660006101000a81548160ff0219169083600281111561011257fe5b021790555050610206565b6101c073c89bd4e1632d3a43cb03aaad5262cbe4038bc57173ffffffffffffffffffffffffffffffffffffffff166338cc48316040518163ffffffff1660e01b815260040160206040518083038186803b15801561017a57600080fd5b505afa15801561018e573d6000803e3d6000fd5b505050506040513d60208110156101a457600080fd5b81019080805190602001909291905050506101c260201b60201c565b565b80600260006101000a81548173ffffffffffffffffffffffffffffffffffffffff021916908373ffffffffffffffffffffffffffffffffffffffff16021790555050565b61158f80620002166000396000f3fe60806040526004361061007b5760003560e01c8063d0b82d771161004e578063d0b82d771461015a578063e580f47b14610195578063e97dcb62146101c0578063f71d96cb146101ca5761007b565b806322bb34d81461008057806381447999146100bb578063a035b1fe146100f4578063c251ebf21461011f575b600080fd5b34801561008c57600080fd5b506100b9600480360360208110156100a357600080fd5b8101908080359060200190929190505050610245565b005b3480156100c757600080fd5b506100d0610413565b604051808260028111156100e057fe5b60ff16815260200191505060405180910390f35b34801561010057600080fd5b50610109610426565b6040518082815260200191505060405180910390f35b34801561012b57600080fd5b506101586004803603602081101561014257600080fd5b810190808035906020019092919050505061042c565b005b34801561016657600080fd5b506101936004803603602081101561017d57600080fd5b8101908080359060200190929190505050610653565b005b3480156101a157600080fd5b506101aa6107b0565b6040518082815260200191505060405180910390f35b6101c86107b6565b005b3480156101d657600080fd5b50610203600480360360208110156101ed57600080fd5b8101908080359060200190929190505050610855565b604051808273ffffffffffffffffffffffffffffffffffffffff1673ffffffffffffffffffffffffffffffffffffffff16815260200191505060405180910390f35b806005600082815260200190815260200160002060009054906101000a900473ffffffffffffffffffffffffffffffffffffffff1673ffffffffffffffffffffffffffffffffffffffff163373ffffffffffffffffffffffffffffffffffffffff16146102fd576040517f08c379a00000000000000000000000000000000000000000000000000000000081526004018080602001828103825260288152602001806115326028913960400191505060405180910390fd5b6005600082815260200190815260200160002060006101000a81549073ffffffffffffffffffffffffffffffffffffffff0219169055807f7cc135e0cebb02c3480ae5d74d377283180a2601f8f644edf7987b009316c63a60405160405180910390a26000600281111561036d57fe5b600660009054906101000a900460ff16600281111561038857fe5b146103fb576040517f08c379a00000000000000000000000000000000000000000000000000000000081526004018080602001828103825260208152602001807f546865206c6f7474657279206861736e2774206576656e20737461727465642181525060200191505060405180910390fd5b60016009540160098190555061040f610891565b5050565b600660009054906101000a900460ff1681565b600a5481565b60028081111561043857fe5b600660009054906101000a900460ff16600281111561045357fe5b146104c6576040517f08c379a000000000000000000000000000000000000000000000000000000000815260040180806020018281038252601d8152602001807f596f75206172656e27742061742074686174207374616765207965742100000081525060200191505060405180910390fd5b6000811161053c576040517f08c379a00000000000000000000000000000000000000000000000000000000081526004018080602001828103825260108152602001807f72616e646f6d2d6e6f742d666f756e640000000000000000000000000000000081525060200191505060405180910390fd5b6000600780549050828161054c57fe5b0690506007818154811061055c57fe5b9060005260206000200160009054906101000a900473ffffffffffffffffffffffffffffffffffffffff1673ffffffffffffffffffffffffffffffffffffffff166108fc479081150290604051600060405180830381858888f193505050501580156105cc573d6000803e3d6000fd5b50600067ffffffffffffffff811180156105e557600080fd5b506040519080825280602002602001820160405280156106145781602001602082028036833780820191505090505b506007908051906020019061062a9291906113ba565b506001600660006101000a81548160ff0219169083600281111561064a57fe5b02179055505050565b6001600281111561066057fe5b600660009054906101000a900460ff16600281111561067b57fe5b146106ee576040517f08c379a000000000000000000000000000000000000000000000000000000000815260040180806020018281038252601d8152602001807f63616e27742073746172742061206e6577206c6f74746572792079657400000081525060200191505060405180910390fd5b6000600660006101000a81548160ff0219169083600281111561070d57fe5b021790555061071a611444565b61072e600c54306322bb34d860e01b610a48565b905061077c6040518060400160405280600581526020017f756e74696c00000000000000000000000000000000000000000000000000000081525083420183610a799092919063ffffffff16565b6107ab600860009054906101000a900473ffffffffffffffffffffffffffffffffffffffff1682600b54610aac565b505050565b60095481565b600a5434146107c157fe5b600060028111156107ce57fe5b600660009054906101000a900460ff1660028111156107e957fe5b146107f057fe5b6007339080600181540180825580915050600190039060005260206000200160009091909190916101000a81548173ffffffffffffffffffffffffffffffffffffffff021916908373ffffffffffffffffffffffffffffffffffffffff160217905550565b6007818154811061086257fe5b906000526020600020016000915054906101000a900473ffffffffffffffffffffffffffffffffffffffff1681565b60028081111561089d57fe5b600660009054906101000a900460ff1660028111156108b857fe5b1461092b576040517f08c379a000000000000000000000000000000000000000000000000000000000815260040180806020018281038252601c8152602001807f596f75206172656e27742061742074686174207374616765207965740000000081525060200191505060405180910390fd5b600d60009054906101000a900473ffffffffffffffffffffffffffffffffffffffff1673ffffffffffffffffffffffffffffffffffffffff1663360131896040518163ffffffff1660e01b8152600401602060405180830381600087803b15801561099557600080fd5b505af11580156109a9573d6000803e3d6000fd5b505050506040513d60208110156109bf57600080fd5b810190808051906020019092919050505073ffffffffffffffffffffffffffffffffffffffff1663655b08eb6009546009546040518363ffffffff1660e01b81526004018083815260200182815260200192505050600060405180830381600087803b158015610a2e57600080fd5b505af1158015610a42573d6000803e3d6000fd5b50505050565b610a50611444565b610a58611444565b610a6f85858584610d64909392919063ffffffff16565b9150509392505050565b610a90828460800151610e1490919063ffffffff16565b610aa7818460800151610e3990919063ffffffff16565b505050565b600030600454604051602001808373ffffffffffffffffffffffffffffffffffffffff1673ffffffffffffffffffffffffffffffffffffffff1660601b815260140182815260200192505050604051602081830303815290604052805190602001209050600454836060018181525050836005600083815260200190815260200160002060006101000a81548173ffffffffffffffffffffffffffffffffffffffff021916908373ffffffffffffffffffffffffffffffffffffffff160217905550807fb5e6e01e79f91267dc17b4e6314d5d4d03593d2ceee0fbb452b750bd70ea5af960405160405180910390a2600260009054906101000a900473ffffffffffffffffffffffffffffffffffffffff1673ffffffffffffffffffffffffffffffffffffffff16634000aea08584610be487610e49565b6040518463ffffffff1660e01b8152600401808473ffffffffffffffffffffffffffffffffffffffff1673ffffffffffffffffffffffffffffffffffffffff16815260200183815260200180602001828103825283818151815260200191508051906020019080838360005b83811015610c6b578082015181840152602081019050610c50565b50505050905090810190601f168015610c985780820380516001836020036101000a031916815260200191505b50945050505050602060405180830381600087803b158015610cb957600080fd5b505af1158015610ccd573d6000803e3d6000fd5b505050506040513d6020811015610ce357600080fd5b8101908080519060200190929190505050610d49576040517f08c379a000000000000000000000000000000000000000000000000000000000815260040180806020018281038252602381526020018061150f6023913960400191505060405180910390fd5b60016004600082825401925050819055508090509392505050565b610d6c611444565b610d7c8560800151610100611015565b508385600001818152505082856020019073ffffffffffffffffffffffffffffffffffffffff16908173ffffffffffffffffffffffffffffffffffffffff16815250508185604001907bffffffffffffffffffffffffffffffffffffffffffffffffffffffff191690817bffffffffffffffffffffffffffffffffffffffffffffffffffffffff191681525050849050949350505050565b610e218260038351611069565b610e3481836111ae90919063ffffffff16565b505050565b610e4582600083611069565b5050565b6060634042994660e01b60008084600001518560200151866040015187606001516001896080015160000151604051602401808973ffffffffffffffffffffffffffffffffffffffff1673ffffffffffffffffffffffffffffffffffffffff1681526020018881526020018781526020018673ffffffffffffffffffffffffffffffffffffffff1673ffffffffffffffffffffffffffffffffffffffff168152602001857bffffffffffffffffffffffffffffffffffffffffffffffffffffffff19167bffffffffffffffffffffffffffffffffffffffffffffffffffffffff1916815260200184815260200183815260200180602001828103825283818151815260200191508051906020019080838360005b83811015610f78578082015181840152602081019050610f5d565b50505050905090810190601f168015610fa55780820380516001836020036101000a031916815260200191505b509950505050505050505050604051602081830303815290604052907bffffffffffffffffffffffffffffffffffffffffffffffffffffffff19166020820180517bffffffffffffffffffffffffffffffffffffffffffffffffffffffff83818316178352505050509050919050565b61101d6114b1565b60006020838161102957fe5b0614611042576020828161103957fe5b06602003820191505b81836020018181525050604051808452600081528281016020016040525082905092915050565b60178111611096576110908160058460ff16901b60ff1617846111d090919063ffffffff16565b506111a9565b60ff81116110d8576110bb601860058460ff16901b17846111d090919063ffffffff16565b506110d2816001856111f09092919063ffffffff16565b506111a8565b61ffff811161111b576110fe601960058460ff16901b17846111d090919063ffffffff16565b50611115816002856111f09092919063ffffffff16565b506111a7565b63ffffffff811161116057611143601a60058460ff16901b17846111d090919063ffffffff16565b5061115a816004856111f09092919063ffffffff16565b506111a6565b67ffffffffffffffff81116111a55761118c601b60058460ff16901b17846111d090919063ffffffff16565b506111a3816008856111f09092919063ffffffff16565b505b5b5b5b5b505050565b6111b66114b1565b6111c883846000015151848551611212565b905092915050565b6111d86114b1565b6111e883846000015151846112cb565b905092915050565b6111f86114b1565b611209848560000151518585611319565b90509392505050565b61121a6114b1565b825182111561122857600080fd5b846020015182850111156112535761125285600261124c886020015188870161137a565b02611396565b5b6000808651805187602083010193508088870111156112725787860182525b60208701925050505b6020841061129e578051825260208201915060208101905060208403935061127b565b60006001856020036101000a03905080198251168184511681811785525050879350505050949350505050565b6112d36114b1565b836020015183106112f0576112ef846002866020015102611396565b5b835180516020858301018481538186141561130c576001820183525b5050508390509392505050565b6113216114b1565b8460200151848301111561133f5761133e85600286850102611396565b5b60006001836101000a039050855183868201018583198251161781528151858801111561136c5784870182525b505085915050949350505050565b60008183111561138c57829050611390565b8190505b92915050565b6060826000015190506113a98383611015565b506113b483826111ae565b50505050565b828054828255906000526020600020908101928215611433579160200282015b828111156114325782518260006101000a81548173ffffffffffffffffffffffffffffffffffffffff021916908373ffffffffffffffffffffffffffffffffffffffff160217905550916020019190600101906113da565b5b50905061144091906114cb565b5090565b6040518060a0016040528060008019168152602001600073ffffffffffffffffffffffffffffffffffffffff16815260200160007bffffffffffffffffffffffffffffffffffffffffffffffffffffffff19168152602001600081526020016114ab6114b1565b81525090565b604051806040016040528060608152602001600081525090565b61150b91905b8082111561150757600081816101000a81549073ffffffffffffffffffffffffffffffffffffffff0219169055506001016114d1565b5090565b9056fe756e61626c6520746f207472616e73666572416e6443616c6c20746f206f7261636c65536f75726365206d75737420626520746865206f7261636c65206f66207468652072657175657374a2646970667358221220155fce4880616815c5c6f4e4be32d5d27aa55f1a5ed3c9c73614f13926e429a064736f6c63430006060033",
  "linkReferences": {},
  "deployedLinkReferences": {}
}